{
  "_format": "hh-sol-artifact-1",
  "contractName": "PropertyTitle",
  "sourceName": "contracts/PropertyTitle.sol",
  "abi": [
    {
      "inputs": [],
      "stateMutability": "nonpayable",
      "type": "constructor"
    },
    {
      "anonymous": false,
      "inputs": [
        {
          "indexed": true,
          "internalType": "address",
          "name": "owner",
          "type": "address"
        },
        {
          "indexed": true,
          "internalType": "address",
          "name": "approved",
          "type": "address"
        },
        {
          "indexed": true,
          "internalType": "uint256",
          "name": "tokenId",
          "type": "uint256"
        }
      ],
      "name": "Approval",
      "type": "event"
    },
    {
      "anonymous": false,
      "inputs": [
        {
          "indexed": true,
          "internalType": "address",
          "name": "owner",
          "type": "address"
        },
        {
          "indexed": true,
          "internalType": "address",
          "name": "operator",
          "type": "address"
        },
        {
          "indexed": false,
          "internalType": "bool",
          "name": "approved",
          "type": "bool"
        }
      ],
      "name": "ApprovalForAll",
      "type": "event"
    },
    {
      "anonymous": false,
      "inputs": [
        {
          "indexed": true,
          "internalType": "address",
          "name": "previousOwner",
          "type": "address"
        },
        {
          "indexed": true,
          "internalType": "address",
          "name": "newOwner",
          "type": "address"
        }
      ],
      "name": "OwnershipTransferred",
      "type": "event"
    },
    {
      "anonymous": false,
      "inputs": [
        {
          "indexed": true,
          "internalType": "uint256",
          "name": "tokenId",
          "type": "uint256"
        },
        {
          "indexed": true,
          "internalType": "address",
          "name": "owner",
          "type": "address"
        },
        {
          "indexed": false,
          "internalType": "string",
          "name": "documentHash",
          "type": "string"
        }
      ],
      "name": "TitleMinted",
      "type": "event"
    },
    {
      "anonymous": false,
      "inputs": [
        {
          "indexed": true,
          "internalType": "uint256",
          "name": "tokenId",
          "type": "uint256"
        },
        {
          "indexed": false,
          "internalType": "bool",
          "name": "verified",
          "type": "bool"
        }
      ],
      "name": "TitleVerified",
      "type": "event"
    },
    {
      "anonymous": false,
      "inputs": [
        {
          "indexed": true,
          "internalType": "address",
          "name": "from",
          "type": "address"
        },
        {
          "indexed": true,
          "internalType": "address",
          "name": "to",
          "type": "address"
        },
        {
          "indexed": true,
          "internalType": "uint256",
          "name": "tokenId",
          "type": "uint256"
        }
      ],
      "name": "Transfer",
      "type": "event"
    },
    {
      "inputs": [
        {
          "internalType": "address",
          "name": "to",
          "type": "address"
        },
        {
          "internalType": "uint256",
          "name": "tokenId",
          "type": "uint256"
        }
      ],
      "name": "approve",
      "outputs": [],
      "stateMutability": "nonpayable",
      "type": "function"
    },
    {
      "inputs": [
        {
          "internalType": "address",
          "name": "owner",
          "type": "address"
        }
      ],
      "name": "balanceOf",
      "outputs": [
        {
          "internalType": "uint256",
          "name": "",
          "type": "uint256"
        }
      ],
      "stateMutability": "view",
      "type": "function"
    },
    {
      "inputs": [
        {
          "internalType": "uint256",
          "name": "",
          "type": "uint256"
        }
      ],
      "name": "documentHashes",
      "outputs": [
        {
          "internalType": "string",
          "name": "",
          "type": "string"
        }
      ],
      "stateMutability": "view",
      "type": "function"
    },
    {
      "inputs": [
        {
          "internalType": "uint256",
          "name": "tokenId",
          "type": "uint256"
        }
      ],
      "name": "getApproved",
      "outputs": [
        {
          "internalType": "address",
          "name": "",
          "type": "address"
        }
      ],
      "stateMutability": "view",
      "type": "function"
    },
    {
      "inputs": [
        {
          "internalType": "address",
          "name": "owner",
          "type": "address"
        },
        {
          "internalType": "address",
          "name": "operator",
          "type": "address"
        }
      ],
      "name": "isApprovedForAll",
      "outputs": [
        {
          "internalType": "bool",
          "name": "",
          "type": "bool"
        }
      ],
      "stateMutability": "view",
      "type": "function"
    },
    {
      "inputs": [
        {
          "internalType": "uint256",
          "name": "tokenId",
          "type": "uint256"
        }
      ],
      "name": "isVerified",
      "outputs": [
        {
          "internalType": "bool",
          "name": "",
          "type": "bool"
        }
      ],
      "stateMutability": "view",
      "type": "function"
    },
    {
      "inputs": [
        {
          "internalType": "address",
          "name": "to",
          "type": "address"
        },
        {
          "internalType": "string",
          "name": "documentHash",
          "type": "string"
        }
      ],
      "name": "mintTitle",
      "outputs": [
        {
          "internalType": "uint256",
          "name": "",
          "type": "uint256"
        }
      ],
      "stateMutability": "nonpayable",
      "type": "function"
    },
    {
      "inputs": [],
      "name": "name",
      "outputs": [
        {
          "internalType": "string",
          "name": "",
          "type": "string"
        }
      ],
      "stateMutability": "view",
      "type": "function"
    },
    {
      "inputs": [],
      "name": "owner",
      "outputs": [
        {
          "internalType": "address",
          "name": "",
          "type": "address"
        }
      ],
      "stateMutability": "view",
      "type": "function"
    },
    {
      "inputs": [
        {
          "internalType": "uint256",
          "name": "tokenId",
          "type": "uint256"
        }
      ],
      "name": "ownerOf",
      "outputs": [
        {
          "internalType": "address",
          "name": "",
          "type": "address"
        }
      ],
      "stateMutability": "view",
      "type": "function"
    },
    {
      "inputs": [],
      "name": "renounceOwnership",
      "outputs": [],
      "stateMutability": "nonpayable",
      "type": "function"
    },
    {
      "inputs": [
        {
          "internalType": "address",
          "name": "from",
          "type": "address"
        },
        {
          "internalType": "address",
          "name": "to",
          "type": "address"
        },
        {
          "internalType": "uint256",
          "name": "tokenId",
          "type": "uint256"
        }
      ],
      "name": "safeTransferFrom",
      "outputs": [],
      "stateMutability": "nonpayable",
      "type": "function"
    },
    {
      "inputs": [
        {
          "internalType": "address",
          "name": "from",
          "type": "address"
        },
        {
          "internalType": "address",
          "name": "to",
          "type": "address"
        },
        {
          "internalType": "uint256",
          "name": "tokenId",
          "type": "uint256"
        },
        {
          "internalType": "bytes",
          "name": "data",
          "type": "bytes"
        }
      ],
      "name": "safeTransferFrom",
      "outputs": [],
      "stateMutability": "nonpayable",
      "type": "function"
    },
    {
      "inputs": [
        {
          "internalType": "address",
          "name": "operator",
          "type": "address"
        },
        {
          "internalType": "bool",
          "name": "approved",
          "type": "bool"
        }
      ],
      "name": "setApprovalForAll",
      "outputs": [],
      "stateMutability": "nonpayable",
      "type": "function"
    },
    {
      "inputs": [
        {
          "internalType": "uint256",
          "name": "tokenId",
          "type": "uint256"
        },
        {
          "internalType": "bool",
          "name": "status",
          "type": "bool"
        }
      ],
      "name": "setVerified",
      "outputs": [],
      "stateMutability": "nonpayable",
      "type": "function"
    },
    {
      "inputs": [
        {
          "internalType": "bytes4",
          "name": "interfaceId",
          "type": "bytes4"
        }
      ],
      "name": "supportsInterface",
      "outputs": [
        {
          "internalType": "bool",
          "name": "",
          "type": "bool"
        }
      ],
      "stateMutability": "view",
      "type": "function"
    },
    {
      "inputs": [],
      "name": "symbol",
      "outputs": [
        {
          "internalType": "string",
          "name": "",
          "type": "string"
        }
      ],
      "stateMutability": "view",
      "type": "function"
    },
    {
      "inputs": [
        {
          "internalType": "uint256",
          "name": "tokenId",
          "type": "uint256"
        }
      ],
      "name": "tokenURI",
      "outputs": [
        {
          "internalType": "string",
          "name": "",
          "type": "string"
        }
      ],
      "stateMutability": "view",
      "type": "function"
    },
    {
      "inputs": [
        {
          "internalType": "address",
          "name": "from",
          "type": "address"
        },
        {
          "internalType": "address",
          "name": "to",
          "type": "address"
        },
        {
          "internalType": "uint256",
          "name": "tokenId",
          "type": "uint256"
        }
      ],
      "name": "transferFrom",
      "outputs": [],
      "stateMutability": "nonpayable",
      "type": "function"
    },
    {
      "inputs": [
        {
          "internalType": "address",
          "name": "newOwner",
          "type": "address"
        }
      ],
      "name": "transferOwnership",
      "outputs": [],
      "stateMutability": "nonpayable",
      "type": "function"
    }
  ],
  "bytecode": "0x60806040523480156200001157600080fd5b506040518060400160405280601381526020017f4c616e64205265676973747279205469746c65000000000000000000000000008152506040518060400160405280600381526020017f4c5254000000000000000000000000000000000000000000000000000000000081525081600090816200008f919062000412565b508060019081620000a1919062000412565b505050620000c4620000b8620000ca60201b60201c565b620000d260201b60201c565b620004f9565b600033905090565b6000600660009054906101000a900473ffffffffffffffffffffffffffffffffffffffff16905081600660006101000a81548173ffffffffffffffffffffffffffffffffffffffff021916908373ffffffffffffffffffffffffffffffffffffffff1602179055508173ffffffffffffffffffffffffffffffffffffffff168173ffffffffffffffffffffffffffffffffffffffff167f8be0079c531659141344cd1fd0a4f28419497f9722a3daafe3b4186f6b6457e060405160405180910390a35050565b600081519050919050565b7f4e487b7100000000000000000000000000000000000000000000000000000000600052604160045260246000fd5b7f4e487b7100000000000000000000000000000000000000000000000000000000600052602260045260246000fd5b600060028204905060018216806200021a57607f821691505b60208210810362000230576200022f620001d2565b5b50919050565b60008190508160005260206000209050919050565b60006020601f8301049050919050565b600082821b905092915050565b6000600883026200029a7fffffffffffffffffffffffffffffffffffffffffffffffffffffffffffffffff826200025b565b620002a686836200025b565b95508019841693508086168417925050509392505050565b6000819050919050565b6000819050919050565b6000620002f3620002ed620002e784620002be565b620002c8565b620002be565b9050919050565b6000819050919050565b6200030f83620002d2565b620003276200031e82620002fa565b84845462000268565b825550505050565b600090565b6200033e6200032f565b6200034b81848462000304565b505050565b5b8181101562000373576200036760008262000334565b60018101905062000351565b5050565b601f821115620003c2576200038c8162000236565b62000397846200024b565b81016020851015620003a7578190505b620003bf620003b6856200024b565b83018262000350565b50505b505050565b600082821c905092915050565b6000620003e760001984600802620003c7565b1980831691505092915050565b6000620004028383620003d4565b9150826002028217905092915050565b6200041d8262000198565b67ffffffffffffffff811115620004395762000438620001a3565b5b62000445825462000201565b6200045282828562000377565b600060209050601f8311600181146200048a576000841562000475578287015190505b620004818582620003f4565b865550620004f1565b601f1984166200049a8662000236565b60005b82811015620004c4578489015182556001820191506020850194506020810190506200049d565b86831015620004e45784890151620004e0601f891682620003d4565b8355505b6001600288020188555050505b505050505050565b61302180620005096000396000f3fe608060405234801561001057600080fd5b506004361061012c5760003560e01c8063715018a6116100ad578063a22cb46511610071578063a22cb46514610355578063b88d4fde14610371578063c87b56dd1461038d578063e985e9c5146103bd578063f2fde38b146103ed5761012c565b8063715018a6146102af5780637b084d5d146102b95780638da5cb5b146102e95780638e383c6b1461030757806395d89b41146103375761012c565b806334756d95116100f457806334756d95146101e757806337b6d96b1461020357806342842e0e146102335780636352211e1461024f57806370a082311461027f5761012c565b806301ffc9a71461013157806306fdde0314610161578063081812fc1461017f578063095ea7b3146101af57806323b872dd146101cb575b600080fd5b61014b60048036038101906101469190611df8565b610409565b6040516101589190611e40565b60405180910390f35b6101696104eb565b6040516101769190611eeb565b60405180910390f35b61019960048036038101906101949190611f43565b61057d565b6040516101a69190611fb1565b60405180910390f35b6101c960048036038101906101c49190611ff8565b6105c3565b005b6101e560048036038101906101e09190612038565b6106da565b005b61020160048036038101906101fc91906120b7565b61073a565b005b61021d60048036038101906102189190611f43565b610820565b60405161022a9190611e40565b60405180910390f35b61024d60048036038101906102489190612038565b6108c0565b005b61026960048036038101906102649190611f43565b6108e0565b6040516102769190611fb1565b60405180910390f35b610299600480360381019061029491906120f7565b610966565b6040516102a69190612133565b60405180910390f35b6102b7610a1d565b005b6102d360048036038101906102ce9190612283565b610a31565b6040516102e09190612133565b60405180910390f35b6102f1610b03565b6040516102fe9190611fb1565b60405180910390f35b610321600480360381019061031c9190611f43565b610b2d565b60405161032e9190611eeb565b60405180910390f35b61033f610bcd565b60405161034c9190611eeb565b60405180910390f35b61036f600480360381019061036a91906122df565b610c5f565b005b61038b600480360381019061038691906123c0565b610c75565b005b6103a760048036038101906103a29190611f43565b610cd7565b6040516103b49190611eeb565b60405180910390f35b6103d760048036038101906103d29190612443565b610d3f565b6040516103e49190611e40565b60405180910390f35b610407600480360381019061040291906120f7565b610dd3565b005b60007f80ac58cd000000000000000000000000000000000000000000000000000000007bffffffffffffffffffffffffffffffffffffffffffffffffffffffff1916827bffffffffffffffffffffffffffffffffffffffffffffffffffffffff191614806104d457507f5b5e139f000000000000000000000000000000000000000000000000000000007bffffffffffffffffffffffffffffffffffffffffffffffffffffffff1916827bffffffffffffffffffffffffffffffffffffffffffffffffffffffff1916145b806104e457506104e382610e56565b5b9050919050565b6060600080546104fa906124b2565b80601f0160208091040260200160405190810160405280929190818152602001828054610526906124b2565b80156105735780601f1061054857610100808354040283529160200191610573565b820191906000526020600020905b81548152906001019060200180831161055657829003601f168201915b5050505050905090565b600061058882610ec0565b6004600083815260200190815260200160002060009054906101000a900473ffffffffffffffffffffffffffffffffffffffff169050919050565b60006105ce826108e0565b90508073ffffffffffffffffffffffffffffffffffffffff168373ffffffffffffffffffffffffffffffffffffffff160361063e576040517f08c379a000000000000000000000000000000000000000000000000000000000815260040161063590612555565b60405180910390fd5b8073ffffffffffffffffffffffffffffffffffffffff1661065d610f0b565b73ffffffffffffffffffffffffffffffffffffffff16148061068c575061068b81610686610f0b565b610d3f565b5b6106cb576040517f08c379a00000000000000000000000000000000000000000000000000000000081526004016106c2906125e7565b60405180910390fd5b6106d58383610f13565b505050565b6106eb6106e5610f0b565b82610fcc565b61072a576040517f08c379a000000000000000000000000000000000000000000000000000000000815260040161072190612679565b60405180910390fd5b610735838383611061565b505050565b61074261135a565b600073ffffffffffffffffffffffffffffffffffffffff16610763836113d8565b73ffffffffffffffffffffffffffffffffffffffff16036107b9576040517f08c379a00000000000000000000000000000000000000000000000000000000081526004016107b0906126e5565b60405180910390fd5b806009600084815260200190815260200160002060006101000a81548160ff021916908315150217905550817fa37b353ad3cf7875d757795e0706de3dedbd3523253767fd346ad9bd139a0175826040516108149190611e40565b60405180910390a25050565b60008073ffffffffffffffffffffffffffffffffffffffff16610842836113d8565b73ffffffffffffffffffffffffffffffffffffffff1603610898576040517f08c379a000000000000000000000000000000000000000000000000000000000815260040161088f906126e5565b60405180910390fd5b6009600083815260200190815260200160002060009054906101000a900460ff169050919050565b6108db83838360405180602001604052806000815250610c75565b505050565b6000806108ec836113d8565b9050600073ffffffffffffffffffffffffffffffffffffffff168173ffffffffffffffffffffffffffffffffffffffff160361095d576040517f08c379a000000000000000000000000000000000000000000000000000000000815260040161095490612751565b60405180910390fd5b80915050919050565b60008073ffffffffffffffffffffffffffffffffffffffff168273ffffffffffffffffffffffffffffffffffffffff16036109d6576040517f08c379a00000000000000000000000000000000000000000000000000000000081526004016109cd906127e3565b60405180910390fd5b600360008373ffffffffffffffffffffffffffffffffffffffff1673ffffffffffffffffffffffffffffffffffffffff168152602001908152602001600020549050919050565b610a2561135a565b610a2f6000611415565b565b6000610a3b61135a565b610a4560076114db565b6000610a5160076114f1565b9050610a5d84826114ff565b82600860008381526020019081526020016000209081610a7d91906129af565b5060006009600083815260200190815260200160002060006101000a81548160ff0219169083151502179055508373ffffffffffffffffffffffffffffffffffffffff16817f3d19dcad70ec98becfb4e1ac4f11ef995530e89a6375001679de6ce0b97cdcb585604051610af19190611eeb565b60405180910390a38091505092915050565b6000600660009054906101000a900473ffffffffffffffffffffffffffffffffffffffff16905090565b60086020528060005260406000206000915090508054610b4c906124b2565b80601f0160208091040260200160405190810160405280929190818152602001828054610b78906124b2565b8015610bc55780601f10610b9a57610100808354040283529160200191610bc5565b820191906000526020600020905b815481529060010190602001808311610ba857829003601f168201915b505050505081565b606060018054610bdc906124b2565b80601f0160208091040260200160405190810160405280929190818152602001828054610c08906124b2565b8015610c555780601f10610c2a57610100808354040283529160200191610c55565b820191906000526020600020905b815481529060010190602001808311610c3857829003601f168201915b5050505050905090565b610c71610c6a610f0b565b838361151d565b5050565b610c86610c80610f0b565b83610fcc565b610cc5576040517f08c379a0000000000000000000000000000000000000000000000000000000008152600401610cbc90612679565b60405180910390fd5b610cd184848484611689565b50505050565b6060610ce282610ec0565b6000610cec6116e5565b90506000815111610d0c5760405180602001604052806000815250610d37565b80610d16846116fc565b604051602001610d27929190612abd565b6040516020818303038152906040525b915050919050565b6000600560008473ffffffffffffffffffffffffffffffffffffffff1673ffffffffffffffffffffffffffffffffffffffff16815260200190815260200160002060008373ffffffffffffffffffffffffffffffffffffffff1673ffffffffffffffffffffffffffffffffffffffff16815260200190815260200160002060009054906101000a900460ff16905092915050565b610ddb61135a565b600073ffffffffffffffffffffffffffffffffffffffff168173ffffffffffffffffffffffffffffffffffffffff1603610e4a576040517f08c379a0000000000000000000000000000000000000000000000000000000008152600401610e4190612b53565b60405180910390fd5b610e5381611415565b50565b60007f01ffc9a7000000000000000000000000000000000000000000000000000000007bffffffffffffffffffffffffffffffffffffffffffffffffffffffff1916827bffffffffffffffffffffffffffffffffffffffffffffffffffffffff1916149050919050565b610ec9816117ca565b610f08576040517f08c379a0000000000000000000000000000000000000000000000000000000008152600401610eff90612751565b60405180910390fd5b50565b600033905090565b816004600083815260200190815260200160002060006101000a81548173ffffffffffffffffffffffffffffffffffffffff021916908373ffffffffffffffffffffffffffffffffffffffff160217905550808273ffffffffffffffffffffffffffffffffffffffff16610f86836108e0565b73ffffffffffffffffffffffffffffffffffffffff167f8c5be1e5ebec7d5bd14f71427d1e84f3dd0314c0f7b2291e5b200ac8c7c3b92560405160405180910390a45050565b600080610fd8836108e0565b90508073ffffffffffffffffffffffffffffffffffffffff168473ffffffffffffffffffffffffffffffffffffffff16148061101a57506110198185610d3f565b5b8061105857508373ffffffffffffffffffffffffffffffffffffffff166110408461057d565b73ffffffffffffffffffffffffffffffffffffffff16145b91505092915050565b8273ffffffffffffffffffffffffffffffffffffffff16611081826108e0565b73ffffffffffffffffffffffffffffffffffffffff16146110d7576040517f08c379a00000000000000000000000000000000000000000000000000000000081526004016110ce90612be5565b60405180910390fd5b600073ffffffffffffffffffffffffffffffffffffffff168273ffffffffffffffffffffffffffffffffffffffff1603611146576040517f08c379a000000000000000000000000000000000000000000000000000000000815260040161113d90612c77565b60405180910390fd5b611153838383600161180b565b8273ffffffffffffffffffffffffffffffffffffffff16611173826108e0565b73ffffffffffffffffffffffffffffffffffffffff16146111c9576040517f08c379a00000000000000000000000000000000000000000000000000000000081526004016111c090612be5565b60405180910390fd5b6004600082815260200190815260200160002060006101000a81549073ffffffffffffffffffffffffffffffffffffffff02191690556001600360008573ffffffffffffffffffffffffffffffffffffffff1673ffffffffffffffffffffffffffffffffffffffff168152602001908152602001600020600082825403925050819055506001600360008473ffffffffffffffffffffffffffffffffffffffff1673ffffffffffffffffffffffffffffffffffffffff16815260200190815260200160002060008282540192505081905550816002600083815260200190815260200160002060006101000a81548173ffffffffffffffffffffffffffffffffffffffff021916908373ffffffffffffffffffffffffffffffffffffffff160217905550808273ffffffffffffffffffffffffffffffffffffffff168473ffffffffffffffffffffffffffffffffffffffff167fddf252ad1be2c89b69c2b068fc378daa952ba7f163c4a11628f55a4df523b3ef60405160405180910390a46113558383836001611811565b505050565b611362610f0b565b73ffffffffffffffffffffffffffffffffffffffff16611380610b03565b73ffffffffffffffffffffffffffffffffffffffff16146113d6576040517f08c379a00000000000000000000000000000000000000000000000000000000081526004016113cd90612ce3565b60405180910390fd5b565b60006002600083815260200190815260200160002060009054906101000a900473ffffffffffffffffffffffffffffffffffffffff169050919050565b6000600660009054906101000a900473ffffffffffffffffffffffffffffffffffffffff16905081600660006101000a81548173ffffffffffffffffffffffffffffffffffffffff021916908373ffffffffffffffffffffffffffffffffffffffff1602179055508173ffffffffffffffffffffffffffffffffffffffff168173ffffffffffffffffffffffffffffffffffffffff167f8be0079c531659141344cd1fd0a4f28419497f9722a3daafe3b4186f6b6457e060405160405180910390a35050565b6001816000016000828254019250508190555050565b600081600001549050919050565b611519828260405180602001604052806000815250611817565b5050565b8173ffffffffffffffffffffffffffffffffffffffff168373ffffffffffffffffffffffffffffffffffffffff160361158b576040517f08c379a000000000000000000000000000000000000000000000000000000000815260040161158290612d4f565b60405180910390fd5b80600560008573ffffffffffffffffffffffffffffffffffffffff1673ffffffffffffffffffffffffffffffffffffffff16815260200190815260200160002060008473ffffffffffffffffffffffffffffffffffffffff1673ffffffffffffffffffffffffffffffffffffffff16815260200190815260200160002060006101000a81548160ff0219169083151502179055508173ffffffffffffffffffffffffffffffffffffffff168373ffffffffffffffffffffffffffffffffffffffff167f17307eab39ab6107e8899845ad3d59bd9653f200f220920489ca2b5937696c318360405161167c9190611e40565b60405180910390a3505050565b611694848484611061565b6116a084848484611872565b6116df576040517f08c379a00000000000000000000000000000000000000000000000000000000081526004016116d690612de1565b60405180910390fd5b50505050565b606060405180602001604052806000815250905090565b60606000600161170b846119f9565b01905060008167ffffffffffffffff81111561172a57611729612158565b5b6040519080825280601f01601f19166020018201604052801561175c5781602001600182028036833780820191505090505b509050600082602001820190505b6001156117bf578080600190039150507f3031323334353637383961626364656600000000000000000000000000000000600a86061a8153600a85816117b3576117b2612e01565b5b0494506000850361176a575b819350505050919050565b60008073ffffffffffffffffffffffffffffffffffffffff166117ec836113d8565b73ffffffffffffffffffffffffffffffffffffffff1614159050919050565b50505050565b50505050565b6118218383611b4c565b61182e6000848484611872565b61186d576040517f08c379a000000000000000000000000000000000000000000000000000000000815260040161186490612de1565b60405180910390fd5b505050565b60006118938473ffffffffffffffffffffffffffffffffffffffff16611d69565b156119ec578373ffffffffffffffffffffffffffffffffffffffff1663150b7a026118bc610f0b565b8786866040518563ffffffff1660e01b81526004016118de9493929190612e85565b6020604051808303816000875af192505050801561191a57506040513d601f19601f820116820180604052508101906119179190612ee6565b60015b61199c573d806000811461194a576040519150601f19603f3d011682016040523d82523d6000602084013e61194f565b606091505b506000815103611994576040517f08c379a000000000000000000000000000000000000000000000000000000000815260040161198b90612de1565b60405180910390fd5b805181602001fd5b63150b7a0260e01b7bffffffffffffffffffffffffffffffffffffffffffffffffffffffff1916817bffffffffffffffffffffffffffffffffffffffffffffffffffffffff1916149150506119f1565b600190505b949350505050565b600080600090507a184f03e93ff9f4daa797ed6e38ed64bf6a1f0100000000000000008310611a57577a184f03e93ff9f4daa797ed6e38ed64bf6a1f0100000000000000008381611a4d57611a4c612e01565b5b0492506040810190505b6d04ee2d6d415b85acef81000000008310611a94576d04ee2d6d415b85acef81000000008381611a8a57611a89612e01565b5b0492506020810190505b662386f26fc100008310611ac357662386f26fc100008381611ab957611ab8612e01565b5b0492506010810190505b6305f5e1008310611aec576305f5e1008381611ae257611ae1612e01565b5b0492506008810190505b6127108310611b11576127108381611b0757611b06612e01565b5b0492506004810190505b60648310611b345760648381611b2a57611b29612e01565b5b0492506002810190505b600a8310611b43576001810190505b80915050919050565b600073ffffffffffffffffffffffffffffffffffffffff168273ffffffffffffffffffffffffffffffffffffffff1603611bbb576040517f08c379a0000000000000000000000000000000000000000000000000000000008152600401611bb290612f5f565b60405180910390fd5b611bc4816117ca565b15611c04576040517f08c379a0000000000000000000000000000000000000000000000000000000008152600401611bfb90612fcb565b60405180910390fd5b611c1260008383600161180b565b611c1b816117ca565b15611c5b576040517f08c379a0000000000000000000000000000000000000000000000000000000008152600401611c5290612fcb565b60405180910390fd5b6001600360008473ffffffffffffffffffffffffffffffffffffffff1673ffffffffffffffffffffffffffffffffffffffff16815260200190815260200160002060008282540192505081905550816002600083815260200190815260200160002060006101000a81548173ffffffffffffffffffffffffffffffffffffffff021916908373ffffffffffffffffffffffffffffffffffffffff160217905550808273ffffffffffffffffffffffffffffffffffffffff16600073ffffffffffffffffffffffffffffffffffffffff167fddf252ad1be2c89b69c2b068fc378daa952ba7f163c4a11628f55a4df523b3ef60405160405180910390a4611d65600083836001611811565b5050565b6000808273ffffffffffffffffffffffffffffffffffffffff163b119050919050565b6000604051905090565b600080fd5b600080fd5b60007fffffffff0000000000000000000000000000000000000000000000000000000082169050919050565b611dd581611da0565b8114611de057600080fd5b50565b600081359050611df281611dcc565b92915050565b600060208284031215611e0e57611e0d611d96565b5b6000611e1c84828501611de3565b91505092915050565b60008115159050919050565b611e3a81611e25565b82525050565b6000602082019050611e556000830184611e31565b92915050565b600081519050919050565b600082825260208201905092915050565b60005b83811015611e95578082015181840152602081019050611e7a565b60008484015250505050565b6000601f19601f8301169050919050565b6000611ebd82611e5b565b611ec78185611e66565b9350611ed7818560208601611e77565b611ee081611ea1565b840191505092915050565b60006020820190508181036000830152611f058184611eb2565b905092915050565b6000819050919050565b611f2081611f0d565b8114611f2b57600080fd5b50565b600081359050611f3d81611f17565b92915050565b600060208284031215611f5957611f58611d96565b5b6000611f6784828501611f2e565b91505092915050565b600073ffffffffffffffffffffffffffffffffffffffff82169050919050565b6000611f9b82611f70565b9050919050565b611fab81611f90565b82525050565b6000602082019050611fc66000830184611fa2565b92915050565b611fd581611f90565b8114611fe057600080fd5b50565b600081359050611ff281611fcc565b92915050565b6000806040838503121561200f5761200e611d96565b5b600061201d85828601611fe3565b925050602061202e85828601611f2e565b9150509250929050565b60008060006060848603121561205157612050611d96565b5b600061205f86828701611fe3565b935050602061207086828701611fe3565b925050604061208186828701611f2e565b9150509250925092565b61209481611e25565b811461209f57600080fd5b50565b6000813590506120b18161208b565b92915050565b600080604083850312156120ce576120cd611d96565b5b60006120dc85828601611f2e565b92505060206120ed858286016120a2565b9150509250929050565b60006020828403121561210d5761210c611d96565b5b600061211b84828501611fe3565b91505092915050565b61212d81611f0d565b82525050565b60006020820190506121486000830184612124565b92915050565b600080fd5b600080fd5b7f4e487b7100000000000000000000000000000000000000000000000000000000600052604160045260246000fd5b61219082611ea1565b810181811067ffffffffffffffff821117156121af576121ae612158565b5b80604052505050565b60006121c2611d8c565b90506121ce8282612187565b919050565b600067ffffffffffffffff8211156121ee576121ed612158565b5b6121f782611ea1565b9050602081019050919050565b82818337600083830152505050565b6000612226612221846121d3565b6121b8565b90508281526020810184848401111561224257612241612153565b5b61224d848285612204565b509392505050565b600082601f83011261226a5761226961214e565b5b813561227a848260208601612213565b91505092915050565b6000806040838503121561229a57612299611d96565b5b60006122a885828601611fe3565b925050602083013567ffffffffffffffff8111156122c9576122c8611d9b565b5b6122d585828601612255565b9150509250929050565b600080604083850312156122f6576122f5611d96565b5b600061230485828601611fe3565b9250506020612315858286016120a2565b9150509250929050565b600067ffffffffffffffff82111561233a57612339612158565b5b61234382611ea1565b9050602081019050919050565b600061236361235e8461231f565b6121b8565b90508281526020810184848401111561237f5761237e612153565b5b61238a848285612204565b509392505050565b600082601f8301126123a7576123a661214e565b5b81356123b7848260208601612350565b91505092915050565b600080600080608085870312156123da576123d9611d96565b5b60006123e887828801611fe3565b94505060206123f987828801611fe3565b935050604061240a87828801611f2e565b925050606085013567ffffffffffffffff81111561242b5761242a611d9b565b5b61243787828801612392565b91505092959194509250565b6000806040838503121561245a57612459611d96565b5b600061246885828601611fe3565b925050602061247985828601611fe3565b9150509250929050565b7f4e487b7100000000000000000000000000000000000000000000000000000000600052602260045260246000fd5b600060028204905060018216806124ca57607f821691505b6020821081036124dd576124dc612483565b5b50919050565b7f4552433732313a20617070726f76616c20746f2063757272656e74206f776e6560008201527f7200000000000000000000000000000000000000000000000000000000000000602082015250565b600061253f602183611e66565b915061254a826124e3565b604082019050919050565b6000602082019050818103600083015261256e81612532565b9050919050565b7f4552433732313a20617070726f76652063616c6c6572206973206e6f7420746f60008201527f6b656e206f776e6572206f7220617070726f76656420666f7220616c6c000000602082015250565b60006125d1603d83611e66565b91506125dc82612575565b604082019050919050565b60006020820190508181036000830152612600816125c4565b9050919050565b7f4552433732313a2063616c6c6572206973206e6f7420746f6b656e206f776e6560008201527f72206f7220617070726f76656400000000000000000000000000000000000000602082015250565b6000612663602d83611e66565b915061266e82612607565b604082019050919050565b6000602082019050818103600083015261269281612656565b9050919050565b7f4e6f6e6578697374656e7420746f6b656e000000000000000000000000000000600082015250565b60006126cf601183611e66565b91506126da82612699565b602082019050919050565b600060208201905081810360008301526126fe816126c2565b9050919050565b7f4552433732313a20696e76616c696420746f6b656e2049440000000000000000600082015250565b600061273b601883611e66565b915061274682612705565b602082019050919050565b6000602082019050818103600083015261276a8161272e565b9050919050565b7f4552433732313a2061646472657373207a65726f206973206e6f74206120766160008201527f6c6964206f776e65720000000000000000000000000000000000000000000000602082015250565b60006127cd602983611e66565b91506127d882612771565b604082019050919050565b600060208201905081810360008301526127fc816127c0565b9050919050565b60008190508160005260206000209050919050565b60006020601f8301049050919050565b600082821b905092915050565b6000600883026128657fffffffffffffffffffffffffffffffffffffffffffffffffffffffffffffffff82612828565b61286f8683612828565b95508019841693508086168417925050509392505050565b6000819050919050565b60006128ac6128a76128a284611f0d565b612887565b611f0d565b9050919050565b6000819050919050565b6128c683612891565b6128da6128d2826128b3565b848454612835565b825550505050565b600090565b6128ef6128e2565b6128fa8184846128bd565b505050565b5b8181101561291e576129136000826128e7565b600181019050612900565b5050565b601f8211156129635761293481612803565b61293d84612818565b8101602085101561294c578190505b61296061295885612818565b8301826128ff565b50505b505050565b600082821c905092915050565b600061298660001984600802612968565b1980831691505092915050565b600061299f8383612975565b9150826002028217905092915050565b6129b882611e5b565b67ffffffffffffffff8111156129d1576129d0612158565b5b6129db82546124b2565b6129e6828285612922565b600060209050601f831160018114612a195760008415612a07578287015190505b612a118582612993565b865550612a79565b601f198416612a2786612803565b60005b82811015612a4f57848901518255600182019150602085019450602081019050612a2a565b86831015612a6c5784890151612a68601f891682612975565b8355505b6001600288020188555050505b505050505050565b600081905092915050565b6000612a9782611e5b565b612aa18185612a81565b9350612ab1818560208601611e77565b80840191505092915050565b6000612ac98285612a8c565b9150612ad58284612a8c565b91508190509392505050565b7f4f776e61626c653a206e6577206f776e657220697320746865207a65726f206160008201527f6464726573730000000000000000000000000000000000000000000000000000602082015250565b6000612b3d602683611e66565b9150612b4882612ae1565b604082019050919050565b60006020820190508181036000830152612b6c81612b30565b9050919050565b7f4552433732313a207472616e736665722066726f6d20696e636f72726563742060008201527f6f776e6572000000000000000000000000000000000000000000000000000000602082015250565b6000612bcf602583611e66565b9150612bda82612b73565b604082019050919050565b60006020820190508181036000830152612bfe81612bc2565b9050919050565b7f4552433732313a207472616e7366657220746f20746865207a65726f2061646460008201527f7265737300000000000000000000000000000000000000000000000000000000602082015250565b6000612c61602483611e66565b9150612c6c82612c05565b604082019050919050565b60006020820190508181036000830152612c9081612c54565b9050919050565b7f4f776e61626c653a2063616c6c6572206973206e6f7420746865206f776e6572600082015250565b6000612ccd602083611e66565b9150612cd882612c97565b602082019050919050565b60006020820190508181036000830152612cfc81612cc0565b9050919050565b7f4552433732313a20617070726f766520746f2063616c6c657200000000000000600082015250565b6000612d39601983611e66565b9150612d4482612d03565b602082019050919050565b60006020820190508181036000830152612d6881612d2c565b9050919050565b7f4552433732313a207472616e7366657220746f206e6f6e20455243373231526560008201527f63656976657220696d706c656d656e7465720000000000000000000000000000602082015250565b6000612dcb603283611e66565b9150612dd682612d6f565b604082019050919050565b60006020820190508181036000830152612dfa81612dbe565b9050919050565b7f4e487b7100000000000000000000000000000000000000000000000000000000600052601260045260246000fd5b600081519050919050565b600082825260208201905092915050565b6000612e5782612e30565b612e618185612e3b565b9350612e71818560208601611e77565b612e7a81611ea1565b840191505092915050565b6000608082019050612e9a6000830187611fa2565b612ea76020830186611fa2565b612eb46040830185612124565b8181036060830152612ec68184612e4c565b905095945050505050565b600081519050612ee081611dcc565b92915050565b600060208284031215612efc57612efb611d96565b5b6000612f0a84828501612ed1565b91505092915050565b7f4552433732313a206d696e7420746f20746865207a65726f2061646472657373600082015250565b6000612f49602083611e66565b9150612f5482612f13565b602082019050919050565b60006020820190508181036000830152612f7881612f3c565b9050919050565b7f4552433732313a20746f6b656e20616c7265616479206d696e74656400000000600082015250565b6000612fb5601c83611e66565b9150612fc082612f7f565b602082019050919050565b60006020820190508181036000830152612fe481612fa8565b905091905056fea2646970667358221220b4c79ec8ba3b25d33f8f08dbaaf2985ecc94ca26b27c187107046efbe4b5a1f064736f6c63430008180033",
  "linkReferences": {},
  "deployedLinkReferences": {}
}