{
  "_format": "hh-sol-artifact-1",
  "contractName": "PropertyTitle",
  "sourceName": "contracts/PropertyTitle.sol",
  "abi": [
    {
      "inputs": [],
      "stateMutability": "nonpayable",
      "type": "constructor"
    },
    {
      "inputs": [
        {
          "internalType": "address",
          "name": "sender",
          "type": "address"
        },
        {
          "internalType": "uint256",
          "name": "tokenId",
          "type": "uint256"
        },
        {
          "internalType": "address",
          "name": "owner",
          "type": "address"
        }
      ],
      "name": "ERC721IncorrectOwner",
      "type": "error"
    },
    {
      "inputs": [
        {
          "internalType": "address",
          "name": "operator",
          "type": "address"
        },
        {
          "internalType": "uint256",
          "name": "tokenId",
          "type": "uint256"
        }
      ],
      "name": "ERC721InsufficientApproval",
      "type": "error"
    },
    {
      "inputs": [
        {
          "internalType": "address",
          "name": "approver",
          "type": "address"
        }
      ],
      "name": "ERC721InvalidApprover",
      "type": "error"
    },
    {
      "inputs": [
        {
          "internalType": "address",
          "name": "operator",
          "type": "address"
        }
      ],
      "name": "ERC721InvalidOperator",
      "type": "error"
    },
    {
      "inputs": [
        {
          "internalType": "address",
          "name": "owner",
          "type": "address"
        }
      ],
      "name": "ERC721InvalidOwner",
      "type": "error"
    },
    {
      "inputs": [
        {
          "internalType": "address",
          "name": "receiver",
          "type": "address"
        }
      ],
      "name": "ERC721InvalidReceiver",
      "type": "error"
    },
    {
      "inputs": [
        {
          "internalType": "address",
          "name": "sender",
          "type": "address"
        }
      ],
      "name": "ERC721InvalidSender",
      "type": "error"
    },
    {
      "inputs": [
        {
          "internalType": "uint256",
          "name": "tokenId",
          "type": "uint256"
        }
      ],
      "name": "ERC721NonexistentToken",
      "type": "error"
    },
    {
      "inputs": [
        {
          "internalType": "address",
          "name": "owner",
          "type": "address"
        }
      ],
      "name": "OwnableInvalidOwner",
      "type": "error"
    },
    {
      "inputs": [
        {
          "internalType": "address",
          "name": "account",
          "type": "address"
        }
      ],
      "name": "OwnableUnauthorizedAccount",
      "type": "error"
    },
    {
      "anonymous": false,
      "inputs": [
        {
          "indexed": true,
          "internalType": "address",
          "name": "owner",
          "type": "address"
        },
        {
          "indexed": true,
          "internalType": "address",
          "name": "approved",
          "type": "address"
        },
        {
          "indexed": true,
          "internalType": "uint256",
          "name": "tokenId",
          "type": "uint256"
        }
      ],
      "name": "Approval",
      "type": "event"
    },
    {
      "anonymous": false,
      "inputs": [
        {
          "indexed": true,
          "internalType": "address",
          "name": "owner",
          "type": "address"
        },
        {
          "indexed": true,
          "internalType": "address",
          "name": "operator",
          "type": "address"
        },
        {
          "indexed": false,
          "internalType": "bool",
          "name": "approved",
          "type": "bool"
        }
      ],
      "name": "ApprovalForAll",
      "type": "event"
    },
    {
      "anonymous": false,
      "inputs": [
        {
          "indexed": true,
          "internalType": "address",
          "name": "previousOwner",
          "type": "address"
        },
        {
          "indexed": true,
          "internalType": "address",
          "name": "newOwner",
          "type": "address"
        }
      ],
      "name": "OwnershipTransferred",
      "type": "event"
    },
    {
      "anonymous": false,
      "inputs": [
        {
          "indexed": true,
          "internalType": "uint256",
          "name": "tokenId",
          "type": "uint256"
        },
        {
          "indexed": true,
          "internalType": "address",
          "name": "owner",
          "type": "address"
        },
        {
          "indexed": false,
          "internalType": "string",
          "name": "documentHash",
          "type": "string"
        }
      ],
      "name": "TitleMinted",
      "type": "event"
    },
    {
      "anonymous": false,
      "inputs": [
        {
          "indexed": true,
          "internalType": "uint256",
          "name": "tokenId",
          "type": "uint256"
        },
        {
          "indexed": false,
          "internalType": "bool",
          "name": "verified",
          "type": "bool"
        }
      ],
      "name": "TitleVerified",
      "type": "event"
    },
    {
      "anonymous": false,
      "inputs": [
        {
          "indexed": true,
          "internalType": "address",
          "name": "from",
          "type": "address"
        },
        {
          "indexed": true,
          "internalType": "address",
          "name": "to",
          "type": "address"
        },
        {
          "indexed": true,
          "internalType": "uint256",
          "name": "tokenId",
          "type": "uint256"
        }
      ],
      "name": "Transfer",
      "type": "event"
    },
    {
      "inputs": [
        {
          "internalType": "address",
          "name": "to",
          "type": "address"
        },
        {
          "internalType": "uint256",
          "name": "tokenId",
          "type": "uint256"
        }
      ],
      "name": "approve",
      "outputs": [],
      "stateMutability": "nonpayable",
      "type": "function"
    },
    {
      "inputs": [
        {
          "internalType": "address",
          "name": "owner",
          "type": "address"
        }
      ],
      "name": "balanceOf",
      "outputs": [
        {
          "internalType": "uint256",
          "name": "",
          "type": "uint256"
        }
      ],
      "stateMutability": "view",
      "type": "function"
    },
    {
      "inputs": [
        {
          "internalType": "uint256",
          "name": "",
          "type": "uint256"
        }
      ],
      "name": "documentHashes",
      "outputs": [
        {
          "internalType": "string",
          "name": "",
          "type": "string"
        }
      ],
      "stateMutability": "view",
      "type": "function"
    },
    {
      "inputs": [
        {
          "internalType": "uint256",
          "name": "tokenId",
          "type": "uint256"
        }
      ],
      "name": "getApproved",
      "outputs": [
        {
          "internalType": "address",
          "name": "",
          "type": "address"
        }
      ],
      "stateMutability": "view",
      "type": "function"
    },
    {
      "inputs": [
        {
          "internalType": "address",
          "name": "owner",
          "type": "address"
        },
        {
          "internalType": "address",
          "name": "operator",
          "type": "address"
        }
      ],
      "name": "isApprovedForAll",
      "outputs": [
        {
          "internalType": "bool",
          "name": "",
          "type": "bool"
        }
      ],
      "stateMutability": "view",
      "type": "function"
    },
    {
      "inputs": [
        {
          "internalType": "uint256",
          "name": "tokenId",
          "type": "uint256"
        }
      ],
      "name": "isVerified",
      "outputs": [
        {
          "internalType": "bool",
          "name": "",
          "type": "bool"
        }
      ],
      "stateMutability": "view",
      "type": "function"
    },
    {
      "inputs": [
        {
          "internalType": "address",
          "name": "to",
          "type": "address"
        },
        {
          "internalType": "string",
          "name": "documentHash",
          "type": "string"
        }
      ],
      "name": "mintTitle",
      "outputs": [
        {
          "internalType": "uint256",
          "name": "",
          "type": "uint256"
        }
      ],
      "stateMutability": "nonpayable",
      "type": "function"
    },
    {
      "inputs": [],
      "name": "name",
      "outputs": [
        {
          "internalType": "string",
          "name": "",
          "type": "string"
        }
      ],
      "stateMutability": "view",
      "type": "function"
    },
    {
      "inputs": [],
      "name": "owner",
      "outputs": [
        {
          "internalType": "address",
          "name": "",
          "type": "address"
        }
      ],
      "stateMutability": "view",
      "type": "function"
    },
    {
      "inputs": [
        {
          "internalType": "uint256",
          "name": "tokenId",
          "type": "uint256"
        }
      ],
      "name": "ownerOf",
      "outputs": [
        {
          "internalType": "address",
          "name": "",
          "type": "address"
        }
      ],
      "stateMutability": "view",
      "type": "function"
    },
    {
      "inputs": [],
      "name": "renounceOwnership",
      "outputs": [],
      "stateMutability": "nonpayable",
      "type": "function"
    },
    {
      "inputs": [
        {
          "internalType": "address",
          "name": "from",
          "type": "address"
        },
        {
          "internalType": "address",
          "name": "to",
          "type": "address"
        },
        {
          "internalType": "uint256",
          "name": "tokenId",
          "type": "uint256"
        }
      ],
      "name": "safeTransferFrom",
      "outputs": [],
      "stateMutability": "nonpayable",
      "type": "function"
    },
    {
      "inputs": [
        {
          "internalType": "address",
          "name": "from",
          "type": "address"
        },
        {
          "internalType": "address",
          "name": "to",
          "type": "address"
        },
        {
          "internalType": "uint256",
          "name": "tokenId",
          "type": "uint256"
        },
        {
          "internalType": "bytes",
          "name": "data",
          "type": "bytes"
        }
      ],
      "name": "safeTransferFrom",
      "outputs": [],
      "stateMutability": "nonpayable",
      "type": "function"
    },
    {
      "inputs": [
        {
          "internalType": "address",
          "name": "operator",
          "type": "address"
        },
        {
          "internalType": "bool",
          "name": "approved",
          "type": "bool"
        }
      ],
      "name": "setApprovalForAll",
      "outputs": [],
      "stateMutability": "nonpayable",
      "type": "function"
    },
    {
      "inputs": [
        {
          "internalType": "uint256",
          "name": "tokenId",
          "type": "uint256"
        },
        {
          "internalType": "bool",
          "name": "status",
          "type": "bool"
        }
      ],
      "name": "setVerified",
      "outputs": [],
      "stateMutability": "nonpayable",
      "type": "function"
    },
    {
      "inputs": [
        {
          "internalType": "bytes4",
          "name": "interfaceId",
          "type": "bytes4"
        }
      ],
      "name": "supportsInterface",
      "outputs": [
        {
          "internalType": "bool",
          "name": "",
          "type": "bool"
        }
      ],
      "stateMutability": "view",
      "type": "function"
    },
    {
      "inputs": [],
      "name": "symbol",
      "outputs": [
        {
          "internalType": "string",
          "name": "",
          "type": "string"
        }
      ],
      "stateMutability": "view",
      "type": "function"
    },
    {
      "inputs": [
        {
          "internalType": "uint256",
          "name": "tokenId",
          "type": "uint256"
        }
      ],
      "name": "tokenURI",
      "outputs": [
        {
          "internalType": "string",
          "name": "",
          "type": "string"
        }
      ],
      "stateMutability": "view",
      "type": "function"
    },
    {
      "inputs": [],
      "name": "totalSupply",
      "outputs": [
        {
          "internalType": "uint256",
          "name": "",
          "type": "uint256"
        }
      ],
      "stateMutability": "view",
      "type": "function"
    },
    {
      "inputs": [
        {
          "internalType": "address",
          "name": "from",
          "type": "address"
        },
        {
          "internalType": "address",
          "name": "to",
          "type": "address"
        },
        {
          "internalType": "uint256",
          "name": "tokenId",
          "type": "uint256"
        }
      ],
      "name": "transferFrom",
      "outputs": [],
      "stateMutability": "nonpayable",
      "type": "function"
    },
    {
      "inputs": [
        {
          "internalType": "address",
          "name": "newOwner",
          "type": "address"
        }
      ],
      "name": "transferOwnership",
      "outputs": [],
      "stateMutability": "nonpayable",
      "type": "function"
    }
  ],
  "bytecode": "0x60806040523480156200001157600080fd5b50336040518060400160405280601381526020017f4c616e64205265676973747279205469746c65000000000000000000000000008152506040518060400160405280600381526020017f4c52540000000000000000000000000000000000000000000000000000000000815250816000908162000090919062000472565b508060019081620000a2919062000472565b505050600073ffffffffffffffffffffffffffffffffffffffff168173ffffffffffffffffffffffffffffffffffffffff16036200011a5760006040517f1e4fbdf70000000000000000000000000000000000000000000000000000000081526004016200011191906200059e565b60405180910390fd5b6200012b816200013260201b60201c565b50620005bb565b6000600660009054906101000a900473ffffffffffffffffffffffffffffffffffffffff16905081600660006101000a81548173ffffffffffffffffffffffffffffffffffffffff021916908373ffffffffffffffffffffffffffffffffffffffff1602179055508173ffffffffffffffffffffffffffffffffffffffff168173ffffffffffffffffffffffffffffffffffffffff167f8be0079c531659141344cd1fd0a4f28419497f9722a3daafe3b4186f6b6457e060405160405180910390a35050565b600081519050919050565b7f4e487b7100000000000000000000000000000000000000000000000000000000600052604160045260246000fd5b7f4e487b7100000000000000000000000000000000000000000000000000000000600052602260045260246000fd5b600060028204905060018216806200027a57607f821691505b60208210810362000290576200028f62000232565b5b50919050565b60008190508160005260206000209050919050565b60006020601f8301049050919050565b600082821b905092915050565b600060088302620002fa7fffffffffffffffffffffffffffffffffffffffffffffffffffffffffffffffff82620002bb565b620003068683620002bb565b95508019841693508086168417925050509392505050565b6000819050919050565b6000819050919050565b6000620003536200034d62000347846200031e565b62000328565b6200031e565b9050919050565b6000819050919050565b6200036f8362000332565b620003876200037e826200035a565b848454620002c8565b825550505050565b600090565b6200039e6200038f565b620003ab81848462000364565b505050565b5b81811015620003d357620003c760008262000394565b600181019050620003b1565b5050565b601f8211156200042257620003ec8162000296565b620003f784620002ab565b8101602085101562000407578190505b6200041f6200041685620002ab565b830182620003b0565b50505b505050565b600082821c905092915050565b6000620004476000198460080262000427565b1980831691505092915050565b600062000462838362000434565b9150826002028217905092915050565b6200047d82620001f8565b67ffffffffffffffff81111562000499576200049862000203565b5b620004a5825462000261565b620004b2828285620003d7565b600060209050601f831160018114620004ea5760008415620004d5578287015190505b620004e1858262000454565b86555062000551565b601f198416620004fa8662000296565b60005b828110156200052457848901518255600182019150602085019450602081019050620004fd565b8683101562000544578489015162000540601f89168262000434565b8355505b6001600288020188555050505b505050505050565b600073ffffffffffffffffffffffffffffffffffffffff82169050919050565b6000620005868262000559565b9050919050565b620005988162000579565b82525050565b6000602082019050620005b560008301846200058d565b92915050565b61289480620005cb6000396000f3fe608060405234801561001057600080fd5b50600436106101375760003560e01c806370a08231116100b857806395d89b411161007c57806395d89b4114610360578063a22cb4651461037e578063b88d4fde1461039a578063c87b56dd146103b6578063e985e9c5146103e6578063f2fde38b1461041657610137565b806370a08231146102a8578063715018a6146102d85780637b084d5d146102e25780638da5cb5b146103125780638e383c6b1461033057610137565b806323b872dd116100ff57806323b872dd146101f457806334756d951461021057806337b6d96b1461022c57806342842e0e1461025c5780636352211e1461027857610137565b806301ffc9a71461013c57806306fdde031461016c578063081812fc1461018a578063095ea7b3146101ba57806318160ddd146101d6575b600080fd5b61015660048036038101906101519190611cb7565b610432565b6040516101639190611cff565b60405180910390f35b610174610514565b6040516101819190611daa565b60405180910390f35b6101a4600480360381019061019f9190611e02565b6105a6565b6040516101b19190611e70565b60405180910390f35b6101d460048036038101906101cf9190611eb7565b6105c2565b005b6101de6105d8565b6040516101eb9190611f06565b60405180910390f35b61020e60048036038101906102099190611f21565b6105e9565b005b61022a60048036038101906102259190611fa0565b6106eb565b005b61024660048036038101906102419190611e02565b6107d1565b6040516102539190611cff565b60405180910390f35b61027660048036038101906102719190611f21565b610871565b005b610292600480360381019061028d9190611e02565b610891565b60405161029f9190611e70565b60405180910390f35b6102c260048036038101906102bd9190611fe0565b6108a3565b6040516102cf9190611f06565b60405180910390f35b6102e061095d565b005b6102fc60048036038101906102f79190612142565b610971565b6040516103099190611f06565b60405180910390f35b61031a610a43565b6040516103279190611e70565b60405180910390f35b61034a60048036038101906103459190611e02565b610a6d565b6040516103579190611daa565b60405180910390f35b610368610b0d565b6040516103759190611daa565b60405180910390f35b6103986004803603810190610393919061219e565b610b9f565b005b6103b460048036038101906103af919061227f565b610bb5565b005b6103d060048036038101906103cb9190611e02565b610bda565b6040516103dd9190611daa565b60405180910390f35b61040060048036038101906103fb9190612302565b610c43565b60405161040d9190611cff565b60405180910390f35b610430600480360381019061042b9190611fe0565b610cd7565b005b60007f80ac58cd000000000000000000000000000000000000000000000000000000007bffffffffffffffffffffffffffffffffffffffffffffffffffffffff1916827bffffffffffffffffffffffffffffffffffffffffffffffffffffffff191614806104fd57507f5b5e139f000000000000000000000000000000000000000000000000000000007bffffffffffffffffffffffffffffffffffffffffffffffffffffffff1916827bffffffffffffffffffffffffffffffffffffffffffffffffffffffff1916145b8061050d575061050c82610d5d565b5b9050919050565b60606000805461052390612371565b80601f016020809104026020016040519081016040528092919081815260200182805461054f90612371565b801561059c5780601f106105715761010080835404028352916020019161059c565b820191906000526020600020905b81548152906001019060200180831161057f57829003601f168201915b5050505050905090565b60006105b182610dc7565b506105bb82610e4f565b9050919050565b6105d482826105cf610e8c565b610e94565b5050565b60006105e46007610ea6565b905090565b600073ffffffffffffffffffffffffffffffffffffffff168273ffffffffffffffffffffffffffffffffffffffff160361065b5760006040517f64a0ae920000000000000000000000000000000000000000000000000000000081526004016106529190611e70565b60405180910390fd5b600061066f838361066a610e8c565b610eb4565b90508373ffffffffffffffffffffffffffffffffffffffff168173ffffffffffffffffffffffffffffffffffffffff16146106e5578382826040517f64283d7b0000000000000000000000000000000000000000000000000000000081526004016106dc939291906123a2565b60405180910390fd5b50505050565b6106f36110ce565b600073ffffffffffffffffffffffffffffffffffffffff1661071483610891565b73ffffffffffffffffffffffffffffffffffffffff160361076a576040517f08c379a000000000000000000000000000000000000000000000000000000000815260040161076190612425565b60405180910390fd5b806009600084815260200190815260200160002060006101000a81548160ff021916908315150217905550817fa37b353ad3cf7875d757795e0706de3dedbd3523253767fd346ad9bd139a0175826040516107c59190611cff565b60405180910390a25050565b60008073ffffffffffffffffffffffffffffffffffffffff166107f383610891565b73ffffffffffffffffffffffffffffffffffffffff1603610849576040517f08c379a000000000000000000000000000000000000000000000000000000000815260040161084090612425565b60405180910390fd5b6009600083815260200190815260200160002060009054906101000a900460ff169050919050565b61088c83838360405180602001604052806000815250610bb5565b505050565b600061089c82610dc7565b9050919050565b60008073ffffffffffffffffffffffffffffffffffffffff168273ffffffffffffffffffffffffffffffffffffffff16036109165760006040517f89c62b6400000000000000000000000000000000000000000000000000000000815260040161090d9190611e70565b60405180910390fd5b600360008373ffffffffffffffffffffffffffffffffffffffff1673ffffffffffffffffffffffffffffffffffffffff168152602001908152602001600020549050919050565b6109656110ce565b61096f6000611155565b565b600061097b6110ce565b610985600761121b565b60006109916007610ea6565b905061099d8482611231565b826008600083815260200190815260200160002090816109bd91906125f1565b5060006009600083815260200190815260200160002060006101000a81548160ff0219169083151502179055508373ffffffffffffffffffffffffffffffffffffffff16817f3d19dcad70ec98becfb4e1ac4f11ef995530e89a6375001679de6ce0b97cdcb585604051610a319190611daa565b60405180910390a38091505092915050565b6000600660009054906101000a900473ffffffffffffffffffffffffffffffffffffffff16905090565b60086020528060005260406000206000915090508054610a8c90612371565b80601f0160208091040260200160405190810160405280929190818152602001828054610ab890612371565b8015610b055780601f10610ada57610100808354040283529160200191610b05565b820191906000526020600020905b815481529060010190602001808311610ae857829003601f168201915b505050505081565b606060018054610b1c90612371565b80601f0160208091040260200160405190810160405280929190818152602001828054610b4890612371565b8015610b955780601f10610b6a57610100808354040283529160200191610b95565b820191906000526020600020905b815481529060010190602001808311610b7857829003601f168201915b5050505050905090565b610bb1610baa610e8c565b838361124f565b5050565b610bc08484846105e9565b610bd4610bcb610e8c565b858585856113be565b50505050565b6060610be582610dc7565b506000610bf061156f565b90506000815111610c105760405180602001604052806000815250610c3b565b80610c1a84611586565b604051602001610c2b9291906126ff565b6040516020818303038152906040525b915050919050565b6000600560008473ffffffffffffffffffffffffffffffffffffffff1673ffffffffffffffffffffffffffffffffffffffff16815260200190815260200160002060008373ffffffffffffffffffffffffffffffffffffffff1673ffffffffffffffffffffffffffffffffffffffff16815260200190815260200160002060009054906101000a900460ff16905092915050565b610cdf6110ce565b600073ffffffffffffffffffffffffffffffffffffffff168173ffffffffffffffffffffffffffffffffffffffff1603610d515760006040517f1e4fbdf7000000000000000000000000000000000000000000000000000000008152600401610d489190611e70565b60405180910390fd5b610d5a81611155565b50565b60007f01ffc9a7000000000000000000000000000000000000000000000000000000007bffffffffffffffffffffffffffffffffffffffffffffffffffffffff1916827bffffffffffffffffffffffffffffffffffffffffffffffffffffffff1916149050919050565b600080610dd383611654565b9050600073ffffffffffffffffffffffffffffffffffffffff168173ffffffffffffffffffffffffffffffffffffffff1603610e4657826040517f7e273289000000000000000000000000000000000000000000000000000000008152600401610e3d9190611f06565b60405180910390fd5b80915050919050565b60006004600083815260200190815260200160002060009054906101000a900473ffffffffffffffffffffffffffffffffffffffff169050919050565b600033905090565b610ea18383836001611691565b505050565b600081600001549050919050565b600080610ec084611654565b9050600073ffffffffffffffffffffffffffffffffffffffff168373ffffffffffffffffffffffffffffffffffffffff1614610f0257610f01818486611856565b5b600073ffffffffffffffffffffffffffffffffffffffff168173ffffffffffffffffffffffffffffffffffffffff1614610f9357610f44600085600080611691565b6001600360008373ffffffffffffffffffffffffffffffffffffffff1673ffffffffffffffffffffffffffffffffffffffff168152602001908152602001600020600082825403925050819055505b600073ffffffffffffffffffffffffffffffffffffffff168573ffffffffffffffffffffffffffffffffffffffff1614611016576001600360008773ffffffffffffffffffffffffffffffffffffffff1673ffffffffffffffffffffffffffffffffffffffff168152602001908152602001600020600082825401925050819055505b846002600086815260200190815260200160002060006101000a81548173ffffffffffffffffffffffffffffffffffffffff021916908373ffffffffffffffffffffffffffffffffffffffff160217905550838573ffffffffffffffffffffffffffffffffffffffff168273ffffffffffffffffffffffffffffffffffffffff167fddf252ad1be2c89b69c2b068fc378daa952ba7f163c4a11628f55a4df523b3ef60405160405180910390a4809150509392505050565b6110d6610e8c565b73ffffffffffffffffffffffffffffffffffffffff166110f4610a43565b73ffffffffffffffffffffffffffffffffffffffff161461115357611117610e8c565b6040517f118cdaa700000000000000000000000000000000000000000000000000000000815260040161114a9190611e70565b60405180910390fd5b565b6000600660009054906101000a900473ffffffffffffffffffffffffffffffffffffffff16905081600660006101000a81548173ffffffffffffffffffffffffffffffffffffffff021916908373ffffffffffffffffffffffffffffffffffffffff1602179055508173ffffffffffffffffffffffffffffffffffffffff168173ffffffffffffffffffffffffffffffffffffffff167f8be0079c531659141344cd1fd0a4f28419497f9722a3daafe3b4186f6b6457e060405160405180910390a35050565b6001816000016000828254019250508190555050565b61124b82826040518060200160405280600081525061191a565b5050565b600073ffffffffffffffffffffffffffffffffffffffff168273ffffffffffffffffffffffffffffffffffffffff16036112c057816040517f5b08ba180000000000000000000000000000000000000000000000000000000081526004016112b79190611e70565b60405180910390fd5b80600560008573ffffffffffffffffffffffffffffffffffffffff1673ffffffffffffffffffffffffffffffffffffffff16815260200190815260200160002060008473ffffffffffffffffffffffffffffffffffffffff1673ffffffffffffffffffffffffffffffffffffffff16815260200190815260200160002060006101000a81548160ff0219169083151502179055508173ffffffffffffffffffffffffffffffffffffffff168373ffffffffffffffffffffffffffffffffffffffff167f17307eab39ab6107e8899845ad3d59bd9653f200f220920489ca2b5937696c31836040516113b19190611cff565b60405180910390a3505050565b60008373ffffffffffffffffffffffffffffffffffffffff163b1115611568578273ffffffffffffffffffffffffffffffffffffffff1663150b7a02868685856040518563ffffffff1660e01b815260040161141d9493929190612778565b6020604051808303816000875af192505050801561145957506040513d601f19601f8201168201806040525081019061145691906127d9565b60015b6114dd573d8060008114611489576040519150601f19603f3d011682016040523d82523d6000602084013e61148e565b606091505b5060008151036114d557836040517f64a0ae920000000000000000000000000000000000000000000000000000000081526004016114cc9190611e70565b60405180910390fd5b805160208201fd5b63150b7a0260e01b7bffffffffffffffffffffffffffffffffffffffffffffffffffffffff1916817bffffffffffffffffffffffffffffffffffffffffffffffffffffffff19161461156657836040517f64a0ae9200000000000000000000000000000000000000000000000000000000815260040161155d9190611e70565b60405180910390fd5b505b5050505050565b606060405180602001604052806000815250905090565b6060600060016115958461193e565b01905060008167ffffffffffffffff8111156115b4576115b3612017565b5b6040519080825280601f01601f1916602001820160405280156115e65781602001600182028036833780820191505090505b509050600082602083010190505b600115611649578080600190039150507f3031323334353637383961626364656600000000000000000000000000000000600a86061a8153600a858161163d5761163c612806565b5b049450600085036115f4575b819350505050919050565b60006002600083815260200190815260200160002060009054906101000a900473ffffffffffffffffffffffffffffffffffffffff169050919050565b80806116ca5750600073ffffffffffffffffffffffffffffffffffffffff168273ffffffffffffffffffffffffffffffffffffffff1614155b156117fe5760006116da84610dc7565b9050600073ffffffffffffffffffffffffffffffffffffffff168373ffffffffffffffffffffffffffffffffffffffff161415801561174557508273ffffffffffffffffffffffffffffffffffffffff168173ffffffffffffffffffffffffffffffffffffffff1614155b801561175857506117568184610c43565b155b1561179a57826040517fa9fbf51f0000000000000000000000000000000000000000000000000000000081526004016117919190611e70565b60405180910390fd5b81156117fc57838573ffffffffffffffffffffffffffffffffffffffff168273ffffffffffffffffffffffffffffffffffffffff167f8c5be1e5ebec7d5bd14f71427d1e84f3dd0314c0f7b2291e5b200ac8c7c3b92560405160405180910390a45b505b836004600085815260200190815260200160002060006101000a81548173ffffffffffffffffffffffffffffffffffffffff021916908373ffffffffffffffffffffffffffffffffffffffff16021790555050505050565b611861838383611a91565b61191557600073ffffffffffffffffffffffffffffffffffffffff168373ffffffffffffffffffffffffffffffffffffffff16036118d657806040517f7e2732890000000000000000000000000000000000000000000000000000000081526004016118cd9190611f06565b60405180910390fd5b81816040517f177e802f00000000000000000000000000000000000000000000000000000000815260040161190c929190612835565b60405180910390fd5b505050565b6119248383611b52565b61193961192f610e8c565b60008585856113be565b505050565b600080600090507a184f03e93ff9f4daa797ed6e38ed64bf6a1f010000000000000000831061199c577a184f03e93ff9f4daa797ed6e38ed64bf6a1f010000000000000000838161199257611991612806565b5b0492506040810190505b6d04ee2d6d415b85acef810000000083106119d9576d04ee2d6d415b85acef810000000083816119cf576119ce612806565b5b0492506020810190505b662386f26fc100008310611a0857662386f26fc1000083816119fe576119fd612806565b5b0492506010810190505b6305f5e1008310611a31576305f5e1008381611a2757611a26612806565b5b0492506008810190505b6127108310611a56576127108381611a4c57611a4b612806565b5b0492506004810190505b60648310611a795760648381611a6f57611a6e612806565b5b0492506002810190505b600a8310611a88576001810190505b80915050919050565b60008073ffffffffffffffffffffffffffffffffffffffff168373ffffffffffffffffffffffffffffffffffffffff1614158015611b4957508273ffffffffffffffffffffffffffffffffffffffff168473ffffffffffffffffffffffffffffffffffffffff161480611b0a5750611b098484610c43565b5b80611b4857508273ffffffffffffffffffffffffffffffffffffffff16611b3083610e4f565b73ffffffffffffffffffffffffffffffffffffffff16145b5b90509392505050565b600073ffffffffffffffffffffffffffffffffffffffff168273ffffffffffffffffffffffffffffffffffffffff1603611bc45760006040517f64a0ae92000000000000000000000000000000000000000000000000000000008152600401611bbb9190611e70565b60405180910390fd5b6000611bd283836000610eb4565b9050600073ffffffffffffffffffffffffffffffffffffffff168173ffffffffffffffffffffffffffffffffffffffff1614611c465760006040517f73c6ac6e000000000000000000000000000000000000000000000000000000008152600401611c3d9190611e70565b60405180910390fd5b505050565b6000604051905090565b600080fd5b600080fd5b60007fffffffff0000000000000000000000000000000000000000000000000000000082169050919050565b611c9481611c5f565b8114611c9f57600080fd5b50565b600081359050611cb181611c8b565b92915050565b600060208284031215611ccd57611ccc611c55565b5b6000611cdb84828501611ca2565b91505092915050565b60008115159050919050565b611cf981611ce4565b82525050565b6000602082019050611d146000830184611cf0565b92915050565b600081519050919050565b600082825260208201905092915050565b60005b83811015611d54578082015181840152602081019050611d39565b60008484015250505050565b6000601f19601f8301169050919050565b6000611d7c82611d1a565b611d868185611d25565b9350611d96818560208601611d36565b611d9f81611d60565b840191505092915050565b60006020820190508181036000830152611dc48184611d71565b905092915050565b6000819050919050565b611ddf81611dcc565b8114611dea57600080fd5b50565b600081359050611dfc81611dd6565b92915050565b600060208284031215611e1857611e17611c55565b5b6000611e2684828501611ded565b91505092915050565b600073ffffffffffffffffffffffffffffffffffffffff82169050919050565b6000611e5a82611e2f565b9050919050565b611e6a81611e4f565b82525050565b6000602082019050611e856000830184611e61565b92915050565b611e9481611e4f565b8114611e9f57600080fd5b50565b600081359050611eb181611e8b565b92915050565b60008060408385031215611ece57611ecd611c55565b5b6000611edc85828601611ea2565b9250506020611eed85828601611ded565b9150509250929050565b611f0081611dcc565b82525050565b6000602082019050611f1b6000830184611ef7565b92915050565b600080600060608486031215611f3a57611f39611c55565b5b6000611f4886828701611ea2565b9350506020611f5986828701611ea2565b9250506040611f6a86828701611ded565b9150509250925092565b611f7d81611ce4565b8114611f8857600080fd5b50565b600081359050611f9a81611f74565b92915050565b60008060408385031215611fb757611fb6611c55565b5b6000611fc585828601611ded565b9250506020611fd685828601611f8b565b9150509250929050565b600060208284031215611ff657611ff5611c55565b5b600061200484828501611ea2565b91505092915050565b600080fd5b600080fd5b7f4e487b7100000000000000000000000000000000000000000000000000000000600052604160045260246000fd5b61204f82611d60565b810181811067ffffffffffffffff8211171561206e5761206d612017565b5b80604052505050565b6000612081611c4b565b905061208d8282612046565b919050565b600067ffffffffffffffff8211156120ad576120ac612017565b5b6120b682611d60565b9050602081019050919050565b82818337600083830152505050565b60006120e56120e084612092565b612077565b90508281526020810184848401111561210157612100612012565b5b61210c8482856120c3565b509392505050565b600082601f8301126121295761212861200d565b5b81356121398482602086016120d2565b91505092915050565b6000806040838503121561215957612158611c55565b5b600061216785828601611ea2565b925050602083013567ffffffffffffffff81111561218857612187611c5a565b5b61219485828601612114565b9150509250929050565b600080604083850312156121b5576121b4611c55565b5b60006121c385828601611ea2565b92505060206121d485828601611f8b565b9150509250929050565b600067ffffffffffffffff8211156121f9576121f8612017565b5b61220282611d60565b9050602081019050919050565b600061222261221d846121de565b612077565b90508281526020810184848401111561223e5761223d612012565b5b6122498482856120c3565b509392505050565b600082601f8301126122665761226561200d565b5b813561227684826020860161220f565b91505092915050565b6000806000806080858703121561229957612298611c55565b5b60006122a787828801611ea2565b94505060206122b887828801611ea2565b93505060406122c987828801611ded565b925050606085013567ffffffffffffffff8111156122ea576122e9611c5a565b5b6122f687828801612251565b91505092959194509250565b6000806040838503121561231957612318611c55565b5b600061232785828601611ea2565b925050602061233885828601611ea2565b9150509250929050565b7f4e487b7100000000000000000000000000000000000000000000000000000000600052602260045260246000fd5b6000600282049050600182168061238957607f821691505b60208210810361239c5761239b612342565b5b50919050565b60006060820190506123b76000830186611e61565b6123c46020830185611ef7565b6123d16040830184611e61565b949350505050565b7f4e6f6e6578697374656e7420746f6b656e000000000000000000000000000000600082015250565b600061240f601183611d25565b915061241a826123d9565b602082019050919050565b6000602082019050818103600083015261243e81612402565b9050919050565b60008190508160005260206000209050919050565b60006020601f8301049050919050565b600082821b905092915050565b6000600883026124a77fffffffffffffffffffffffffffffffffffffffffffffffffffffffffffffffff8261246a565b6124b1868361246a565b95508019841693508086168417925050509392505050565b6000819050919050565b60006124ee6124e96124e484611dcc565b6124c9565b611dcc565b9050919050565b6000819050919050565b612508836124d3565b61251c612514826124f5565b848454612477565b825550505050565b600090565b612531612524565b61253c8184846124ff565b505050565b5b8181101561256057612555600082612529565b600181019050612542565b5050565b601f8211156125a55761257681612445565b61257f8461245a565b8101602085101561258e578190505b6125a261259a8561245a565b830182612541565b50505b505050565b600082821c905092915050565b60006125c8600019846008026125aa565b1980831691505092915050565b60006125e183836125b7565b9150826002028217905092915050565b6125fa82611d1a565b67ffffffffffffffff81111561261357612612612017565b5b61261d8254612371565b612628828285612564565b600060209050601f83116001811461265b5760008415612649578287015190505b61265385826125d5565b8655506126bb565b601f19841661266986612445565b60005b828110156126915784890151825560018201915060208501945060208101905061266c565b868310156126ae57848901516126aa601f8916826125b7565b8355505b6001600288020188555050505b505050505050565b600081905092915050565b60006126d982611d1a565b6126e381856126c3565b93506126f3818560208601611d36565b80840191505092915050565b600061270b82856126ce565b915061271782846126ce565b91508190509392505050565b600081519050919050565b600082825260208201905092915050565b600061274a82612723565b612754818561272e565b9350612764818560208601611d36565b61276d81611d60565b840191505092915050565b600060808201905061278d6000830187611e61565b61279a6020830186611e61565b6127a76040830185611ef7565b81810360608301526127b9818461273f565b905095945050505050565b6000815190506127d381611c8b565b92915050565b6000602082840312156127ef576127ee611c55565b5b60006127fd848285016127c4565b91505092915050565b7f4e487b7100000000000000000000000000000000000000000000000000000000600052601260045260246000fd5b600060408201905061284a6000830185611e61565b6128576020830184611ef7565b939250505056fea2646970667358221220e4d92e0a1f11700b0f2c8f6f4903e26943ce21c4f0608ec3303abe9e0a7f21c364736f6c63430008180033",
  "linkReferences": {},
  "deployedLinkReferences": {}
}